:100000000C9434000C9451000C9451000C94510049
:100010000C9451000C9451000C9451000C94490321
:100020000C9451000C9451000C9451000C9451000C
:100030000C9451000C9451000C9451000C945100FC
:100040000C9464020C9451000C9457030C94930389
:100050000C9481030C9451000C9451000C945100A9
:100060000C9451000C94510011241FBECFEFD8E026
:10007000DEBFCDBF11E0A0E0B1E0E4EAFFE002C0E6
:1000800005900D92A433B107D9F723E0A4E3B1E0C2
:1000900001C01D92A438B207E1F70E94D8030C9466
:1000A000B9070C940000FC01408151816281738189
:1000B00084819581A681B781481759076A077B0714
:1000C000C9F084819581A681B7818E0F9F1FDC01C5
:1000D00018968C9144815581668177814F5F5F4F7F
:1000E0006F4F7F4F55276627772744835583668355
:1000F0007783089580E008950F931F93FC0180811A
:100100009181A281B3810481158126813781019675
:10011000A11DB11D9927AA27BB2780179107A20708
:10012000B307B9F080819181A281B3818E0F9F1FA7
:10013000DC0118966C9380819181A281B381019634
:10014000A11DB11D9927AA27BB2780839183A28374
:10015000B3831F910F9108955B9AE1ECF0E08081E9
:10016000877088668083089594E0899FF001112448
:10017000E62BE150411119C0E73038F40E2E000C87
:10018000FF0BE554F84F0C949F0729980895289881
:1001900008955F9808955E9808952A9808952B9879
:1001A00008952C9808952D980895E73038F40E2E70
:1001B000000CFF0BEE53F84F0C949F07299A0895FB
:1001C000289A08955F9A08955E9A08952A9A089544
:1001D0002B9A08952C9A08952D9A08950F931F93A2
:1001E000CF93DF93082F84E0689FE0011124CC5E59
:1001F000DE4F10E04991612F802F0E94B4001F5FF5
:100200001430C1F7DF91CF911F910F910895CF92D4
:10021000DF92EF92FF926B017C01F7FE0AC0F0942F
:10022000E094D094C094C11CD11CE11CF11C6894D2
:10023000F7F86C2D82E491E00E947C0099278F2DC5
:100240007E2D6D2D82E491E00E947C00B70188270D
:10025000992782E491E00E947C006F2D7727882700
:10026000992782E491E0FF90EF90DF90CF900C947B
:100270007C000F931F93CF93DF938A01EC01080F4B
:10028000191F699182E491E00E947C00C017D10798
:10029000C1F7DF91CF911F910F910895CF92DF9217
:1002A000EF92FF926B017C0182E491E00E947C005E
:1002B00099278F2D7E2D6D2D82E491E00E947C0088
:1002C000B7018827992782E491E00E947C006F2D76
:1002D00077278827992782E491E0FF90EF90DF90BD
:1002E000CF900C947C000F931F93CF93DF9300D09B
:1002F00000D0CDB7DEB740914A0250914B026091D9
:100300004C0270914D0280914E0290914F02A0914B
:100310005002B0915102481759076A077B0738F11C
:1003200040914A0250914B0260914C0270914D02F3
:1003300080914E0290914F02A0915002B0915102D3
:100340008A019B01081B190B2A0B3B0B09831A839B
:100350002B833C8369817A818B819C810F900F90E4
:100360000F900F90DF91CF911F910F910895809181
:100370004A0290914B02A0914C02B0914D024091E3
:100380004E0250914F0260915002709151029F5F56
:10039000AF4FBF4F8C019D01041B150B260B370B74
:1003A000D5CF0F931F93CF93DF9300D000D00F9240
:1003B000CDB7DEB70E9473016430710581059105E8
:1003C00098F18AE492E00E9453008D838AE492E0DF
:1003D0000E945300182F8AE492E00E945300898300
:1003E0008AE492E00E9453000981402F50E070E0BF
:1003F00060E0BA0155274427512B1D81412B8A010A
:100400009B01382B09831A832B833C8369817A8172
:100410008B819C810F900F900F900F900F90DF9128
:10042000CF911F910F91089519821A821B821C820D
:10043000EDCF1F93CF93DF9300D000D00F92CDB7B5
:10044000DEB70E9473016430710581059105B8F132
:100450008AE492E00E9453008D838AE492E00E9435
:100460005300182F8AE492E00E94530089838AE4A3
:1004700092E00E9453009981492F50E070E060E0C3
:10048000BA0155274427512BAD814A2B782B7F7712
:1004900087FF07C070956095509541955F4F6F4FEE
:1004A0007F4F342F252FCB01632F722F0F900F908A
:1004B0000F900F900F90DF91CF911F91089530E032
:1004C00020E080E090E0F0CF1F921FB61F92112431
:1004D0000F931F932F933F934F935F936F937F934C
:1004E0008F939F93AF93BF9380913D0190913E0175
:1004F000A0913F01B09140010091390110913A0162
:1005000020913B0130913C01B901A8014E5E5F4F43
:100510006F4F7F4F4D37510561057105C0F58A5FFB
:100520009E4FAF4FBF4F0091350110913601209182
:100530003701309138010F5F1F4F2F4F3F4F00930E
:1005400035011093360120933701309338018093A1
:100550003D0190933E01A0933F01B0934001409331
:10056000390150933A0160933B0170933C01BF9174
:10057000AF919F918F917F916F915F914F913F913B
:100580002F911F910F911F901FBE1F901895B901B9
:10059000A8014B56510961097109895F9E4FAF4F00
:1005A000BF4FC1CFCF93DF9300D000D0CDB7DEB720
:1005B0002FB7F8948091350190913601A0913701C1
:1005C000B091380146B550E070E060E0A89B08C0EB
:1005D0004F3F51056105710519F00196A11DB11D2F
:1005E0002FBFBA2FA92F982F8827840F951FA61FDA
:1005F000B71F9C01AD0162E0220F331F441F551F3E
:100600006A95D1F7CA01B9010F900F900F900F9022
:10061000DF91CF910895CF92DF92EF92FF92CF9327
:10062000DF9300D000D000D0CDB7DEB76B017C01E6
:100630000E94D2026D837E83C114D104E104F104CF
:1006400069F426960FB6F894DEBF0FBECDBFDF91DA
:10065000CF91FF90EF90DF90CF9008950E94D2024B
:1006600069837A838B839C8389819A812D813E81E2
:10067000821B930B883E9340F8F28D819E818851B6
:100680009C4F9E838D8391E0C91AD108E108F1083F
:10069000D3CF8F93EF93FF93E1EBF0E080818083E2
:1006A00081E080933401FF91EF918F9118951F9213
:1006B0000F920FB60F9211242F933F934F935F9396
:1006C0006F937F938F939F93AF93BF93EF93FF931A
:1006D000F8946091C6008AE492E00E947C007894CD
:1006E000FF91EF91BF91AF919F918F917F916F910A
:1006F0005F914F913F912F910F900FBE0F901F90E0
:1007000018958F938FB78F93EF93FF935B98E1ECDE
:10071000F0E08081877080698083FF91EF918F91F5
:100720008FBF8F9118951F920F920FB60F921124C1
:100730002F933F934F935F936F937F938F939F93E9
:10074000AF93BF93EF93FF93F89440914201509180
:10075000430160914401709145018091460190915F
:100760004701A0914801B0914901481759076A070C
:100770007B07B9F48091C1008F7D8093C10078948C
:10078000FF91EF91BF91AF919F918F917F916F9169
:100790005F914F913F912F910F900FBE0F901F903F
:1007A000189582E491E00E9453008093C600E7CF41
:1007B00000D000D000D00F92CDB7DEB7F89414BCB3
:1007C00083E085BD31E030936E008FE384B915B8C6
:1007D0008AB1846C8AB91BB8789410928203109203
:1007E000830310927A0310927B0310927C03109281
:1007F0007D0310927E0310927F031092800310926B
:10080000810310927203109273031092740310927A
:10081000750310927603109277031092780310926A
:10082000790380E090E0A0E0B0EC80936A039093BD
:100830006B03A0936C03B0936D0380936E0390934E
:100840006F03A0937003B093710380E090E0A0E089
:10085000B0E48093620390936303A0936403B09326
:1008600065038093660390936703A0936803B09336
:10087000690380E590E0A0E0B0E080935A03909394
:100880005B03A0935C03B0935D0380935E0390933E
:100890005F03A0936003B093610310925203109220
:1008A0005303109254031092550310925603109262
:1008B00057031092580310925903F89410924A0269
:1008C00010924B0210924C0210924D0210924E0266
:1008D00010924F0210925002109251021092420157
:1008E000109243011092440110924501109246016A
:1008F00010924701109248011092490192E09093A2
:10090000410142E250E05093C5004093C4009093EF
:10091000C0001092C10026E02093C2005B98809135
:10092000C100877080698093C1007894F894109218
:10093000B1001092B2009093B0003093B300909346
:1009400070002093B10078949EE1892E912CA12C07
:10095000B12C80913401813099F10E947301623091
:10096000C0F380914E0290914F02A0915002B0913D
:1009700051020196A11DB11D9927AA27BB27865BAD
:100980009D4FDC0118960C91601718F38AE492E0F1
:100990000E94530010E0909141018913B1C28AE492
:1009A00092E00E9453008AE492E00E945300893052
:1009B00008F0F6C0E82FF0E0E753F84F0C949F07DB
:1009C0001092340182E5C82E83E0D82E2AE533E068
:1009D0003D832C8302E813E0F12CE12CF601819198
:1009E0009191A191B1916F010196A11DB11DB29399
:1009F000A293929382939F01EC81FD814191519149
:100A000061917191FD83EC8384179507A607B70761
:100A1000A0F1D9011D921D921D921C921397F7010E
:100A2000E658FC4F4080518062807380D701AE58F9
:100A3000BC4F8D919D910D90BC91A02D302E22E840
:100A400033E0321A84159505A605B7052CF5D801B3
:100A50008C9181111DC027E02C93B1E04B1A5108F5
:100A6000610871084082518262827382F80160815C
:100A7000683018F4832D0E94EE000F5F1F4FE4E0F2
:100A8000EE0EF11CF8E0EF16F10409F0A7CF65CFE8
:100A90008150D8018C93E1CF481659066A067B062F
:100AA000B4F4D8018C9190E0019667E070E00E9468
:100AB0008B07D8018C93B301A2014F5F5F4F6F4F3B
:100AC0007F4F4083518362837383682FD3CF212C60
:100AD00040E0622D832D0E94B4002394B4E02B12D9
:100AE000F7CFCBCF80914E0290914F02A091500250
:100AF000B091510203501109080F10E030E020E0DE
:100B000000934E0210934F022093500230935102F3
:100B100044E150E060E070E080E091E00E94390143
:100B20000E94AC0016CF1982B3E0BA8381E0C09076
:100B30007A03D0907B03E0907C03F0907D0340919A
:100B40007203509173036091740370917503C4161E
:100B5000D506E606F70609F480E0C0907E03D09043
:100B60007F03E0908003F0908103409176035091E1
:100B70007703609178037091790392E0C416D506EB
:100B8000E606F70609F490E0892B8B8343E050E0FA
:100B900060E070E0CE0101960E9439010E94AC0035
:100BA00080914E0290914F02A0915002B09151025B
:100BB0000350110912C11982E2E1EA8342E050E0D8
:100BC00060E070E0CE0101960E94390180916203DD
:100BD00090916303A0916403B0916503BC01CD01C2
:100BE0000E94070180916A0390916B03A0916C03AE
:100BF000B0916D03BC01CD010E9407018091660395
:100C000090916703A0916803B0916903BC01CD0185
:100C10000E94070180916E0390916F03A091700371
:100C2000B09171038C839D83AE83BF83BC01CD01E2
:100C30000E940701B3CF0E9419026B017C010E9440
:100C40001902462F572FBC0180916A0390916B03C4
:100C5000A0916C03B0916D038C159D05AE05BF0589
:100C6000ACF48091620390916303A0916403B0910E
:100C70006503C816D906EA06FB0644F4C09272035F
:100C8000D0927303E0927403F092750380916E0327
:100C900090916F03A0917003B09171038417950731
:100CA000A607B707ACF48091660390916703A09103
:100CB0006803B0916903481759076A077B0744F432
:100CC000409376035093770360937803709379038E
:100CD00080914E0290914F02A0915002B09151022A
:100CE0000B5011097AC019829AE09A8342E050E0D1
:100CF00060E070E0CE0101960E94390180917A0394
:100D000090917B03A0917C03B0917D03BC01CD0148
:100D10000E94070180917E0390917F03A091800340
:100D2000B09181037FCF19829AE09A8342E050E02C
:100D300060E070E0CE0101960E94390180915A0373
:100D400090915B03A0915C03B0915D03BC01CD0168
:100D50000E944E0180915E0390915F03A091600319
:100D6000B09161038C839D83AE83BF83BC01CD01B1
:100D70000E944E0113CF0E94190260936203709388
:100D8000630380936403909365030E941902609348
:100D90006A0370936B0380936C0390936D030E94BE
:100DA00019026093660370936703809368039093BE
:100DB00069030E94190260936E0370936F0380931E
:100DC00070039093710380914E0290914F02A09115
:100DD0005002B091510203511109080F10E030E0A8
:100DE00020E000934E0210934F0220935002309364
:100DF0005102AFCD0E94D1016B017C01C0925A0318
:100E0000D0925B03E0925C03F0925D030E94D101FB
:100E1000462F572FBC0140935E0350935F036093AE
:100E20006003709361039EE1C916D104E104F104EB
:100E300040F480925A0390925B03A0925C03B092BC
:100E40005D034E3151056105710508F041CF809277
:100E50005E0390925F03A0926003B092610338CF6B
:100E60000E9419026B017C010E941902462F572F24
:100E7000BC0180916A0390916B03A0916C03B091C7
:100E80006D038C159D05AE05BF05ACF48091620322
:100E900090916303A0916403B0916503C816D906CD
:100EA000EA06FB0644F4C0927A03D0927B03E092F8
:100EB0007C03F0927D0380916E0390916F03A0916B
:100EC0007003B091710384179507A607B7070CF05C
:100ED000FFCE8091660390916703A0916803B09163
:100EE0006903481759076A077B070CF0F1CE409356
:100EF0007E0350937F036093800370938103E8CE59
:100F000080914E0290914F02A0915002B0915102F7
:100F10000150110962CF97FB072E16F4009407D0F9
:100F200077FD09D00E94A50707FC05D03EF49095F7
:100F300081959F4F0895709561957F4F0895EE0FAD
:100F4000FF1F0590F491E02D0994AA1BBB1B51E1F2
:100F500007C0AA1FBB1FA617B70710F0A61BB70B29
:100F6000881F991F5A95A9F780959095BC01CD01CE
:100F70000895F894FFCFC700C900CB00CD00CF0083
:100F8000D100D300E000E200E400E600E800EA005F
:100F9000EC007205DB05BB0673061B069306FA061A
:040FA000930530077E
:100FA4000014B79A72E1036AEB114580B499BADF71
:100FB40000A1010001000000010100000001000087
:100FC4000001010000000100000001010000000117
:040FD4000100000117
:00000001FF
